{
  "_format": "hh-sol-artifact-1",
  "contractName": "SanctionsOracle",
  "sourceName": "src/VestingVault/SanctionsOracle.sol",
  "abi": [
    {
      "inputs": [
        {
          "internalType": "address",
          "name": "initialOwner",
          "type": "address"
        }
      ],
      "stateMutability": "nonpayable",
      "type": "constructor"
    },
    {
      "anonymous": false,
      "inputs": [
        {
          "indexed": true,
          "internalType": "address",
          "name": "target",
          "type": "address"
        },
        {
          "indexed": false,
          "internalType": "uint256",
          "name": "timestamp",
          "type": "uint256"
        }
      ],
      "name": "AddressSanctioned",
      "type": "event"
    },
    {
      "anonymous": false,
      "inputs": [
        {
          "indexed": true,
          "internalType": "address",
          "name": "target",
          "type": "address"
        },
        {
          "indexed": false,
          "internalType": "uint256",
          "name": "timestamp",
          "type": "uint256"
        }
      ],
      "name": "AddressUnsanctioned",
      "type": "event"
    },
    {
      "anonymous": false,
      "inputs": [
        {
          "indexed": true,
          "internalType": "address",
          "name": "previousOwner",
          "type": "address"
        },
        {
          "indexed": true,
          "internalType": "address",
          "name": "newOwner",
          "type": "address"
        }
      ],
      "name": "OwnershipTransferred",
      "type": "event"
    },
    {
      "inputs": [
        {
          "internalType": "address[]",
          "name": "targets",
          "type": "address[]"
        }
      ],
      "name": "areSanctioned",
      "outputs": [
        {
          "internalType": "bool[]",
          "name": "",
          "type": "bool[]"
        }
      ],
      "stateMutability": "view",
      "type": "function"
    },
    {
      "inputs": [
        {
          "internalType": "address[]",
          "name": "targets",
          "type": "address[]"
        }
      ],
      "name": "batchSanction",
      "outputs": [],
      "stateMutability": "nonpayable",
      "type": "function"
    },
    {
      "inputs": [
        {
          "internalType": "address[]",
          "name": "targets",
          "type": "address[]"
        }
      ],
      "name": "batchUnsanction",
      "outputs": [],
      "stateMutability": "nonpayable",
      "type": "function"
    },
    {
      "inputs": [
        {
          "internalType": "uint256",
          "name": "offset",
          "type": "uint256"
        },
        {
          "internalType": "uint256",
          "name": "limit",
          "type": "uint256"
        }
      ],
      "name": "getSanctionedAddresses",
      "outputs": [
        {
          "internalType": "address[]",
          "name": "",
          "type": "address[]"
        }
      ],
      "stateMutability": "view",
      "type": "function"
    },
    {
      "inputs": [],
      "name": "getSanctionedCount",
      "outputs": [
        {
          "internalType": "uint256",
          "name": "",
          "type": "uint256"
        }
      ],
      "stateMutability": "view",
      "type": "function"
    },
    {
      "inputs": [
        {
          "internalType": "address",
          "name": "target",
          "type": "address"
        }
      ],
      "name": "isSanctioned",
      "outputs": [
        {
          "internalType": "bool",
          "name": "",
          "type": "bool"
        }
      ],
      "stateMutability": "view",
      "type": "function"
    },
    {
      "inputs": [],
      "name": "owner",
      "outputs": [
        {
          "internalType": "address",
          "name": "",
          "type": "address"
        }
      ],
      "stateMutability": "view",
      "type": "function"
    },
    {
      "inputs": [],
      "name": "renounceOwnership",
      "outputs": [],
      "stateMutability": "nonpayable",
      "type": "function"
    },
    {
      "inputs": [
        {
          "internalType": "address",
          "name": "target",
          "type": "address"
        }
      ],
      "name": "sanctionAddress",
      "outputs": [],
      "stateMutability": "nonpayable",
      "type": "function"
    },
    {
      "inputs": [
        {
          "internalType": "address",
          "name": "newOwner",
          "type": "address"
        }
      ],
      "name": "transferOwnership",
      "outputs": [],
      "stateMutability": "nonpayable",
      "type": "function"
    },
    {
      "inputs": [
        {
          "internalType": "address",
          "name": "target",
          "type": "address"
        }
      ],
      "name": "unsanctionAddress",
      "outputs": [],
      "stateMutability": "nonpayable",
      "type": "function"
    }
  ],
  "bytecode": "0x60806040523480156200001157600080fd5b5060405162001f5938038062001f598339818101604052810190620000379190620002f5565b620000576200004b6200006f60201b60201c565b6200007760201b60201c565b62000068816200013b60201b60201c565b5062000442565b600033905090565b60008060009054906101000a900473ffffffffffffffffffffffffffffffffffffffff169050816000806101000a81548173ffffffffffffffffffffffffffffffffffffffff021916908373ffffffffffffffffffffffffffffffffffffffff1602179055508173ffffffffffffffffffffffffffffffffffffffff168173ffffffffffffffffffffffffffffffffffffffff167f8be0079c531659141344cd1fd0a4f28419497f9722a3daafe3b4186f6b6457e060405160405180910390a35050565b6200014b620001d160201b60201c565b600073ffffffffffffffffffffffffffffffffffffffff168173ffffffffffffffffffffffffffffffffffffffff1603620001bd576040517f08c379a0000000000000000000000000000000000000000000000000000000008152600401620001b490620003ae565b60405180910390fd5b620001ce816200007760201b60201c565b50565b620001e16200006f60201b60201c565b73ffffffffffffffffffffffffffffffffffffffff16620002076200026260201b60201c565b73ffffffffffffffffffffffffffffffffffffffff161462000260576040517f08c379a0000000000000000000000000000000000000000000000000000000008152600401620002579062000420565b60405180910390fd5b565b60008060009054906101000a900473ffffffffffffffffffffffffffffffffffffffff16905090565b600080fd5b600073ffffffffffffffffffffffffffffffffffffffff82169050919050565b6000620002bd8262000290565b9050919050565b620002cf81620002b0565b8114620002db57600080fd5b50565b600081519050620002ef81620002c4565b92915050565b6000602082840312156200030e576200030d6200028b565b5b60006200031e84828501620002de565b91505092915050565b600082825260208201905092915050565b7f4f776e61626c653a206e6577206f776e657220697320746865207a65726f206160008201527f6464726573730000000000000000000000000000000000000000000000000000602082015250565b60006200039660268362000327565b9150620003a38262000338565b604082019050919050565b60006020820190508181036000830152620003c98162000387565b9050919050565b7f4f776e61626c653a2063616c6c6572206973206e6f7420746865206f776e6572600082015250565b60006200040860208362000327565b91506200041582620003d0565b602082019050919050565b600060208201905081810360008301526200043b81620003f9565b9050919050565b611b0780620004526000396000f3fe608060405234801561001057600080fd5b50600436106100a95760003560e01c8063a08f958c11610071578063a08f958c14610140578063cf81e7201461015c578063df592f7d1461018c578063f23c41b6146101bc578063f2fde38b146101d8578063f5d0bfbf146101f4576100a9565b80631188d442146100ae57806361d020fe146100ca578063715018a6146100e857806374f3176a146100f25780638da5cb5b14610122575b600080fd5b6100c860048036038101906100c39190611373565b610210565b005b6100d2610474565b6040516100df91906113b9565b60405180910390f35b6100f0610481565b005b61010c60048036038101906101079190611439565b610495565b6040516101199190611550565b60405180910390f35b61012a6105ac565b6040516101379190611581565b60405180910390f35b61015a60048036038101906101559190611439565b6105d5565b005b610176600480360381019061017191906115c8565b6108d7565b60405161018391906116c6565b60405180910390f35b6101a660048036038101906101a19190611373565b610a1b565b6040516101b391906116f7565b60405180910390f35b6101d660048036038101906101d19190611439565b610a71565b005b6101f260048036038101906101ed9190611373565b610e2e565b005b61020e60048036038101906102099190611373565b610eb1565b005b6102186111c1565b600160008273ffffffffffffffffffffffffffffffffffffffff1673ffffffffffffffffffffffffffffffffffffffff16815260200190815260200160002060009054906101000a900460ff16156102a5576040517f08c379a000000000000000000000000000000000000000000000000000000000815260040161029c9061176f565b60405180910390fd5b600073ffffffffffffffffffffffffffffffffffffffff168173ffffffffffffffffffffffffffffffffffffffff1603610314576040517f08c379a000000000000000000000000000000000000000000000000000000000815260040161030b906117db565b60405180910390fd5b60018060008373ffffffffffffffffffffffffffffffffffffffff1673ffffffffffffffffffffffffffffffffffffffff16815260200190815260200160002060006101000a81548160ff0219169083151502179055506002819080600181540180825580915050600190039060005260206000200160009091909190916101000a81548173ffffffffffffffffffffffffffffffffffffffff021916908373ffffffffffffffffffffffffffffffffffffffff16021790555060016002805490506103e0919061182a565b600360008373ffffffffffffffffffffffffffffffffffffffff1673ffffffffffffffffffffffffffffffffffffffff168152602001908152602001600020819055508073ffffffffffffffffffffffffffffffffffffffff167fee8ea5432ef181115f41d108266073200beb73dbed4051e9fdcf1a4f72d4e47b4260405161046991906113b9565b60405180910390a250565b6000600280549050905090565b6104896111c1565b610493600061123f565b565b606060008383905067ffffffffffffffff8111156104b6576104b561185e565b5b6040519080825280602002602001820160405280156104e45781602001602082028036833780820191505090505b50905060005b848490508110156105a1576001600086868481811061050c5761050b61188d565b5b90506020020160208101906105219190611373565b73ffffffffffffffffffffffffffffffffffffffff1673ffffffffffffffffffffffffffffffffffffffff16815260200190815260200160002060009054906101000a900460ff1682828151811061057c5761057b61188d565b5b6020026020010190151590811515815250508080610599906118bc565b9150506104ea565b508091505092915050565b60008060009054906101000a900473ffffffffffffffffffffffffffffffffffffffff16905090565b6105dd6111c1565b60005b828290508110156108d257600160008484848181106106025761060161188d565b5b90506020020160208101906106179190611373565b73ffffffffffffffffffffffffffffffffffffffff1673ffffffffffffffffffffffffffffffffffffffff16815260200190815260200160002060009054906101000a900460ff161580156106c05750600073ffffffffffffffffffffffffffffffffffffffff168383838181106106925761069161188d565b5b90506020020160208101906106a79190611373565b73ffffffffffffffffffffffffffffffffffffffff1614155b156108bf5760018060008585858181106106dd576106dc61188d565b5b90506020020160208101906106f29190611373565b73ffffffffffffffffffffffffffffffffffffffff1673ffffffffffffffffffffffffffffffffffffffff16815260200190815260200160002060006101000a81548160ff02191690831515021790555060028383838181106107585761075761188d565b5b905060200201602081019061076d9190611373565b9080600181540180825580915050600190039060005260206000200160009091909190916101000a81548173ffffffffffffffffffffffffffffffffffffffff021916908373ffffffffffffffffffffffffffffffffffffffff16021790555060016002805490506107df919061182a565b600360008585858181106107f6576107f561188d565b5b905060200201602081019061080b9190611373565b73ffffffffffffffffffffffffffffffffffffffff1673ffffffffffffffffffffffffffffffffffffffff1681526020019081526020016000208190555082828281811061085c5761085b61188d565b5b90506020020160208101906108719190611373565b73ffffffffffffffffffffffffffffffffffffffff167fee8ea5432ef181115f41d108266073200beb73dbed4051e9fdcf1a4f72d4e47b426040516108b691906113b9565b60405180910390a25b80806108ca906118bc565b9150506105e0565b505050565b6060600082846108e79190611904565b90506002805490508111156108ff5760028054905090505b6000848261090d919061182a565b67ffffffffffffffff8111156109265761092561185e565b5b6040519080825280602002602001820160405280156109545781602001602082028036833780820191505090505b50905060008590505b82811015610a0f57600281815481106109795761097861188d565b5b9060005260206000200160009054906101000a900473ffffffffffffffffffffffffffffffffffffffff168287836109b1919061182a565b815181106109c2576109c161188d565b5b602002602001019073ffffffffffffffffffffffffffffffffffffffff16908173ffffffffffffffffffffffffffffffffffffffff16815250508080610a07906118bc565b91505061095d565b50809250505092915050565b6000600160008373ffffffffffffffffffffffffffffffffffffffff1673ffffffffffffffffffffffffffffffffffffffff16815260200190815260200160002060009054906101000a900460ff169050919050565b610a796111c1565b60005b82829050811015610e295760016000848484818110610a9e57610a9d61188d565b5b9050602002016020810190610ab39190611373565b73ffffffffffffffffffffffffffffffffffffffff1673ffffffffffffffffffffffffffffffffffffffff16815260200190815260200160002060009054906101000a900460ff1615610e1657600060016000858585818110610b1957610b1861188d565b5b9050602002016020810190610b2e9190611373565b73ffffffffffffffffffffffffffffffffffffffff1673ffffffffffffffffffffffffffffffffffffffff16815260200190815260200160002060006101000a81548160ff021916908315150217905550600060036000858585818110610b9857610b9761188d565b5b9050602002016020810190610bad9190611373565b73ffffffffffffffffffffffffffffffffffffffff1673ffffffffffffffffffffffffffffffffffffffff16815260200190815260200160002054905060006001600280549050610bfe919061182a565b9050808214610ced57600060028281548110610c1d57610c1c61188d565b5b9060005260206000200160009054906101000a900473ffffffffffffffffffffffffffffffffffffffff1690508060028481548110610c5f57610c5e61188d565b5b9060005260206000200160006101000a81548173ffffffffffffffffffffffffffffffffffffffff021916908373ffffffffffffffffffffffffffffffffffffffff16021790555082600360008373ffffffffffffffffffffffffffffffffffffffff1673ffffffffffffffffffffffffffffffffffffffff16815260200190815260200160002081905550505b6002805480610cff57610cfe611938565b5b6001900381819060005260206000200160006101000a81549073ffffffffffffffffffffffffffffffffffffffff0219169055905560036000868686818110610d4b57610d4a61188d565b5b9050602002016020810190610d609190611373565b73ffffffffffffffffffffffffffffffffffffffff1673ffffffffffffffffffffffffffffffffffffffff16815260200190815260200160002060009055848484818110610db157610db061188d565b5b9050602002016020810190610dc69190611373565b73ffffffffffffffffffffffffffffffffffffffff167fe9e4fc2f0bdd4f422b8e5ec26fe4819c4b23af640a54df9b3f571af6fde4a3ad42604051610e0b91906113b9565b60405180910390a250505b8080610e21906118bc565b915050610a7c565b505050565b610e366111c1565b600073ffffffffffffffffffffffffffffffffffffffff168173ffffffffffffffffffffffffffffffffffffffff1603610ea5576040517f08c379a0000000000000000000000000000000000000000000000000000000008152600401610e9c906119d9565b60405180910390fd5b610eae8161123f565b50565b610eb96111c1565b600160008273ffffffffffffffffffffffffffffffffffffffff1673ffffffffffffffffffffffffffffffffffffffff16815260200190815260200160002060009054906101000a900460ff16610f45576040517f08c379a0000000000000000000000000000000000000000000000000000000008152600401610f3c90611a45565b60405180910390fd5b6000600160008373ffffffffffffffffffffffffffffffffffffffff1673ffffffffffffffffffffffffffffffffffffffff16815260200190815260200160002060006101000a81548160ff0219169083151502179055506000600360008373ffffffffffffffffffffffffffffffffffffffff1673ffffffffffffffffffffffffffffffffffffffff16815260200190815260200160002054905060006001600280549050610ff5919061182a565b90508082146110e4576000600282815481106110145761101361188d565b5b9060005260206000200160009054906101000a900473ffffffffffffffffffffffffffffffffffffffff16905080600284815481106110565761105561188d565b5b9060005260206000200160006101000a81548173ffffffffffffffffffffffffffffffffffffffff021916908373ffffffffffffffffffffffffffffffffffffffff16021790555082600360008373ffffffffffffffffffffffffffffffffffffffff1673ffffffffffffffffffffffffffffffffffffffff16815260200190815260200160002081905550505b60028054806110f6576110f5611938565b5b6001900381819060005260206000200160006101000a81549073ffffffffffffffffffffffffffffffffffffffff02191690559055600360008473ffffffffffffffffffffffffffffffffffffffff1673ffffffffffffffffffffffffffffffffffffffff168152602001908152602001600020600090558273ffffffffffffffffffffffffffffffffffffffff167fe9e4fc2f0bdd4f422b8e5ec26fe4819c4b23af640a54df9b3f571af6fde4a3ad426040516111b491906113b9565b60405180910390a2505050565b6111c9611303565b73ffffffffffffffffffffffffffffffffffffffff166111e76105ac565b73ffffffffffffffffffffffffffffffffffffffff161461123d576040517f08c379a000000000000000000000000000000000000000000000000000000000815260040161123490611ab1565b60405180910390fd5b565b60008060009054906101000a900473ffffffffffffffffffffffffffffffffffffffff169050816000806101000a81548173ffffffffffffffffffffffffffffffffffffffff021916908373ffffffffffffffffffffffffffffffffffffffff1602179055508173ffffffffffffffffffffffffffffffffffffffff168173ffffffffffffffffffffffffffffffffffffffff167f8be0079c531659141344cd1fd0a4f28419497f9722a3daafe3b4186f6b6457e060405160405180910390a35050565b600033905090565b600080fd5b600080fd5b600073ffffffffffffffffffffffffffffffffffffffff82169050919050565b600061134082611315565b9050919050565b61135081611335565b811461135b57600080fd5b50565b60008135905061136d81611347565b92915050565b6000602082840312156113895761138861130b565b5b60006113978482850161135e565b91505092915050565b6000819050919050565b6113b3816113a0565b82525050565b60006020820190506113ce60008301846113aa565b92915050565b600080fd5b600080fd5b600080fd5b60008083601f8401126113f9576113f86113d4565b5b8235905067ffffffffffffffff811115611416576114156113d9565b5b602083019150836020820283011115611432576114316113de565b5b9250929050565b600080602083850312156114505761144f61130b565b5b600083013567ffffffffffffffff81111561146e5761146d611310565b5b61147a858286016113e3565b92509250509250929050565b600081519050919050565b600082825260208201905092915050565b6000819050602082019050919050565b60008115159050919050565b6114c7816114b2565b82525050565b60006114d983836114be565b60208301905092915050565b6000602082019050919050565b60006114fd82611486565b6115078185611491565b9350611512836114a2565b8060005b8381101561154357815161152a88826114cd565b9750611535836114e5565b925050600181019050611516565b5085935050505092915050565b6000602082019050818103600083015261156a81846114f2565b905092915050565b61157b81611335565b82525050565b60006020820190506115966000830184611572565b92915050565b6115a5816113a0565b81146115b057600080fd5b50565b6000813590506115c28161159c565b92915050565b600080604083850312156115df576115de61130b565b5b60006115ed858286016115b3565b92505060206115fe858286016115b3565b9150509250929050565b600081519050919050565b600082825260208201905092915050565b6000819050602082019050919050565b61163d81611335565b82525050565b600061164f8383611634565b60208301905092915050565b6000602082019050919050565b600061167382611608565b61167d8185611613565b935061168883611624565b8060005b838110156116b95781516116a08882611643565b97506116ab8361165b565b92505060018101905061168c565b5085935050505092915050565b600060208201905081810360008301526116e08184611668565b905092915050565b6116f1816114b2565b82525050565b600060208201905061170c60008301846116e8565b92915050565b600082825260208201905092915050565b7f4164647265737320616c72656164792073616e6374696f6e6564000000000000600082015250565b6000611759601a83611712565b915061176482611723565b602082019050919050565b600060208201905081810360008301526117888161174c565b9050919050565b7f43616e6e6f742073616e6374696f6e207a65726f206164647265737300000000600082015250565b60006117c5601c83611712565b91506117d08261178f565b602082019050919050565b600060208201905081810360008301526117f4816117b8565b9050919050565b7f4e487b7100000000000000000000000000000000000000000000000000000000600052601160045260246000fd5b6000611835826113a0565b9150611840836113a0565b9250828203905081811115611858576118576117fb565b5b92915050565b7f4e487b7100000000000000000000000000000000000000000000000000000000600052604160045260246000fd5b7f4e487b7100000000000000000000000000000000000000000000000000000000600052603260045260246000fd5b60006118c7826113a0565b91507fffffffffffffffffffffffffffffffffffffffffffffffffffffffffffffffff82036118f9576118f86117fb565b5b600182019050919050565b600061190f826113a0565b915061191a836113a0565b9250828201905080821115611932576119316117fb565b5b92915050565b7f4e487b7100000000000000000000000000000000000000000000000000000000600052603160045260246000fd5b7f4f776e61626c653a206e6577206f776e657220697320746865207a65726f206160008201527f6464726573730000000000000000000000000000000000000000000000000000602082015250565b60006119c3602683611712565b91506119ce82611967565b604082019050919050565b600060208201905081810360008301526119f2816119b6565b9050919050565b7f41646472657373206e6f742073616e6374696f6e656400000000000000000000600082015250565b6000611a2f601683611712565b9150611a3a826119f9565b602082019050919050565b60006020820190508181036000830152611a5e81611a22565b9050919050565b7f4f776e61626c653a2063616c6c6572206973206e6f7420746865206f776e6572600082015250565b6000611a9b602083611712565b9150611aa682611a65565b602082019050919050565b60006020820190508181036000830152611aca81611a8e565b905091905056fea2646970667358221220de3061d02a90a4b73d763cc703fb90f8ade08a3934223dd9bc258f7cab3173a964736f6c63430008130033",
  "linkReferences": {},
  "deployedLinkReferences": {}
}