{
  "_format": "hh-sol-artifact-1",
  "contractName": "MockERC20",
  "sourceName": "src/VestingVault/MockERC20.sol",
  "abi": [
    {
      "inputs": [
        {
          "internalType": "string",
          "name": "name",
          "type": "string"
        },
        {
          "internalType": "string",
          "name": "symbol",
          "type": "string"
        }
      ],
      "stateMutability": "nonpayable",
      "type": "constructor"
    },
    {
      "anonymous": false,
      "inputs": [
        {
          "indexed": true,
          "internalType": "address",
          "name": "owner",
          "type": "address"
        },
        {
          "indexed": true,
          "internalType": "address",
          "name": "spender",
          "type": "address"
        },
        {
          "indexed": false,
          "internalType": "uint256",
          "name": "value",
          "type": "uint256"
        }
      ],
      "name": "Approval",
      "type": "event"
    },
    {
      "anonymous": false,
      "inputs": [
        {
          "indexed": true,
          "internalType": "address",
          "name": "previousOwner",
          "type": "address"
        },
        {
          "indexed": true,
          "internalType": "address",
          "name": "newOwner",
          "type": "address"
        }
      ],
      "name": "OwnershipTransferred",
      "type": "event"
    },
    {
      "anonymous": false,
      "inputs": [
        {
          "indexed": true,
          "internalType": "address",
          "name": "from",
          "type": "address"
        },
        {
          "indexed": true,
          "internalType": "address",
          "name": "to",
          "type": "address"
        },
        {
          "indexed": false,
          "internalType": "uint256",
          "name": "value",
          "type": "uint256"
        }
      ],
      "name": "Transfer",
      "type": "event"
    },
    {
      "inputs": [
        {
          "internalType": "address",
          "name": "owner",
          "type": "address"
        },
        {
          "internalType": "address",
          "name": "spender",
          "type": "address"
        }
      ],
      "name": "allowance",
      "outputs": [
        {
          "internalType": "uint256",
          "name": "",
          "type": "uint256"
        }
      ],
      "stateMutability": "view",
      "type": "function"
    },
    {
      "inputs": [
        {
          "internalType": "address",
          "name": "spender",
          "type": "address"
        },
        {
          "internalType": "uint256",
          "name": "amount",
          "type": "uint256"
        }
      ],
      "name": "approve",
      "outputs": [
        {
          "internalType": "bool",
          "name": "",
          "type": "bool"
        }
      ],
      "stateMutability": "nonpayable",
      "type": "function"
    },
    {
      "inputs": [
        {
          "internalType": "address",
          "name": "account",
          "type": "address"
        }
      ],
      "name": "balanceOf",
      "outputs": [
        {
          "internalType": "uint256",
          "name": "",
          "type": "uint256"
        }
      ],
      "stateMutability": "view",
      "type": "function"
    },
    {
      "inputs": [],
      "name": "decimals",
      "outputs": [
        {
          "internalType": "uint8",
          "name": "",
          "type": "uint8"
        }
      ],
      "stateMutability": "view",
      "type": "function"
    },
    {
      "inputs": [
        {
          "internalType": "address",
          "name": "spender",
          "type": "address"
        },
        {
          "internalType": "uint256",
          "name": "subtractedValue",
          "type": "uint256"
        }
      ],
      "name": "decreaseAllowance",
      "outputs": [
        {
          "internalType": "bool",
          "name": "",
          "type": "bool"
        }
      ],
      "stateMutability": "nonpayable",
      "type": "function"
    },
    {
      "inputs": [
        {
          "internalType": "address",
          "name": "spender",
          "type": "address"
        },
        {
          "internalType": "uint256",
          "name": "addedValue",
          "type": "uint256"
        }
      ],
      "name": "increaseAllowance",
      "outputs": [
        {
          "internalType": "bool",
          "name": "",
          "type": "bool"
        }
      ],
      "stateMutability": "nonpayable",
      "type": "function"
    },
    {
      "inputs": [
        {
          "internalType": "address",
          "name": "to",
          "type": "address"
        },
        {
          "internalType": "uint256",
          "name": "amount",
          "type": "uint256"
        }
      ],
      "name": "mint",
      "outputs": [],
      "stateMutability": "nonpayable",
      "type": "function"
    },
    {
      "inputs": [],
      "name": "name",
      "outputs": [
        {
          "internalType": "string",
          "name": "",
          "type": "string"
        }
      ],
      "stateMutability": "view",
      "type": "function"
    },
    {
      "inputs": [],
      "name": "owner",
      "outputs": [
        {
          "internalType": "address",
          "name": "",
          "type": "address"
        }
      ],
      "stateMutability": "view",
      "type": "function"
    },
    {
      "inputs": [],
      "name": "renounceOwnership",
      "outputs": [],
      "stateMutability": "nonpayable",
      "type": "function"
    },
    {
      "inputs": [],
      "name": "symbol",
      "outputs": [
        {
          "internalType": "string",
          "name": "",
          "type": "string"
        }
      ],
      "stateMutability": "view",
      "type": "function"
    },
    {
      "inputs": [],
      "name": "totalSupply",
      "outputs": [
        {
          "internalType": "uint256",
          "name": "",
          "type": "uint256"
        }
      ],
      "stateMutability": "view",
      "type": "function"
    },
    {
      "inputs": [
        {
          "internalType": "address",
          "name": "to",
          "type": "address"
        },
        {
          "internalType": "uint256",
          "name": "amount",
          "type": "uint256"
        }
      ],
      "name": "transfer",
      "outputs": [
        {
          "internalType": "bool",
          "name": "",
          "type": "bool"
        }
      ],
      "stateMutability": "nonpayable",
      "type": "function"
    },
    {
      "inputs": [
        {
          "internalType": "address",
          "name": "from",
          "type": "address"
        },
        {
          "internalType": "address",
          "name": "to",
          "type": "address"
        },
        {
          "internalType": "uint256",
          "name": "amount",
          "type": "uint256"
        }
      ],
      "name": "transferFrom",
      "outputs": [
        {
          "internalType": "bool",
          "name": "",
          "type": "bool"
        }
      ],
      "stateMutability": "nonpayable",
      "type": "function"
    },
    {
      "inputs": [
        {
          "internalType": "address",
          "name": "newOwner",
          "type": "address"
        }
      ],
      "name": "transferOwnership",
      "outputs": [],
      "stateMutability": "nonpayable",
      "type": "function"
    }
  ],
  "bytecode": "0x60806040523480156200001157600080fd5b506040516200213638038062002136833981810160405281019062000037919062000466565b818181600390816200004a919062000736565b5080600490816200005c919062000736565b5050506200007f62000073620000b460201b60201c565b620000bc60201b60201c565b6012600560146101000a81548160ff021916908360ff160217905550620000ac336200018260201b60201c565b505062000938565b600033905090565b6000600560009054906101000a900473ffffffffffffffffffffffffffffffffffffffff16905081600560006101000a81548173ffffffffffffffffffffffffffffffffffffffff021916908373ffffffffffffffffffffffffffffffffffffffff1602179055508173ffffffffffffffffffffffffffffffffffffffff168173ffffffffffffffffffffffffffffffffffffffff167f8be0079c531659141344cd1fd0a4f28419497f9722a3daafe3b4186f6b6457e060405160405180910390a35050565b620001926200021860201b60201c565b600073ffffffffffffffffffffffffffffffffffffffff168173ffffffffffffffffffffffffffffffffffffffff160362000204576040517f08c379a0000000000000000000000000000000000000000000000000000000008152600401620001fb90620008a4565b60405180910390fd5b6200021581620000bc60201b60201c565b50565b62000228620000b460201b60201c565b73ffffffffffffffffffffffffffffffffffffffff166200024e620002a960201b60201c565b73ffffffffffffffffffffffffffffffffffffffff1614620002a7576040517f08c379a00000000000000000000000000000000000000000000000000000000081526004016200029e9062000916565b60405180910390fd5b565b6000600560009054906101000a900473ffffffffffffffffffffffffffffffffffffffff16905090565b6000604051905090565b600080fd5b600080fd5b600080fd5b600080fd5b6000601f19601f8301169050919050565b7f4e487b7100000000000000000000000000000000000000000000000000000000600052604160045260246000fd5b6200033c82620002f1565b810181811067ffffffffffffffff821117156200035e576200035d62000302565b5b80604052505050565b600062000373620002d3565b905062000381828262000331565b919050565b600067ffffffffffffffff821115620003a457620003a362000302565b5b620003af82620002f1565b9050602081019050919050565b60005b83811015620003dc578082015181840152602081019050620003bf565b60008484015250505050565b6000620003ff620003f98462000386565b62000367565b9050828152602081018484840111156200041e576200041d620002ec565b5b6200042b848285620003bc565b509392505050565b600082601f8301126200044b576200044a620002e7565b5b81516200045d848260208601620003e8565b91505092915050565b6000806040838503121562000480576200047f620002dd565b5b600083015167ffffffffffffffff811115620004a157620004a0620002e2565b5b620004af8582860162000433565b925050602083015167ffffffffffffffff811115620004d357620004d2620002e2565b5b620004e18582860162000433565b9150509250929050565b600081519050919050565b7f4e487b7100000000000000000000000000000000000000000000000000000000600052602260045260246000fd5b600060028204905060018216806200053e57607f821691505b602082108103620005545762000553620004f6565b5b50919050565b60008190508160005260206000209050919050565b60006020601f8301049050919050565b600082821b905092915050565b600060088302620005be7fffffffffffffffffffffffffffffffffffffffffffffffffffffffffffffffff826200057f565b620005ca86836200057f565b95508019841693508086168417925050509392505050565b6000819050919050565b6000819050919050565b600062000617620006116200060b84620005e2565b620005ec565b620005e2565b9050919050565b6000819050919050565b6200063383620005f6565b6200064b62000642826200061e565b8484546200058c565b825550505050565b600090565b6200066262000653565b6200066f81848462000628565b505050565b5b8181101562000697576200068b60008262000658565b60018101905062000675565b5050565b601f821115620006e657620006b0816200055a565b620006bb846200056f565b81016020851015620006cb578190505b620006e3620006da856200056f565b83018262000674565b50505b505050565b600082821c905092915050565b60006200070b60001984600802620006eb565b1980831691505092915050565b6000620007268383620006f8565b9150826002028217905092915050565b6200074182620004eb565b67ffffffffffffffff8111156200075d576200075c62000302565b5b62000769825462000525565b620007768282856200069b565b600060209050601f831160018114620007ae576000841562000799578287015190505b620007a5858262000718565b86555062000815565b601f198416620007be866200055a565b60005b82811015620007e857848901518255600182019150602085019450602081019050620007c1565b8683101562000808578489015162000804601f891682620006f8565b8355505b6001600288020188555050505b505050505050565b600082825260208201905092915050565b7f4f776e61626c653a206e6577206f776e657220697320746865207a65726f206160008201527f6464726573730000000000000000000000000000000000000000000000000000602082015250565b60006200088c6026836200081d565b915062000899826200082e565b604082019050919050565b60006020820190508181036000830152620008bf816200087d565b9050919050565b7f4f776e61626c653a2063616c6c6572206973206e6f7420746865206f776e6572600082015250565b6000620008fe6020836200081d565b91506200090b82620008c6565b602082019050919050565b600060208201905081810360008301526200093181620008ef565b9050919050565b6117ee80620009486000396000f3fe608060405234801561001057600080fd5b50600436106100f55760003560e01c806370a0823111610097578063a457c2d711610066578063a457c2d714610276578063a9059cbb146102a6578063dd62ed3e146102d6578063f2fde38b14610306576100f5565b806370a0823114610200578063715018a6146102305780638da5cb5b1461023a57806395d89b4114610258576100f5565b806323b872dd116100d357806323b872dd14610166578063313ce5671461019657806339509351146101b457806340c10f19146101e4576100f5565b806306fdde03146100fa578063095ea7b31461011857806318160ddd14610148575b600080fd5b610102610322565b60405161010f9190610f37565b60405180910390f35b610132600480360381019061012d9190610ff2565b6103b4565b60405161013f919061104d565b60405180910390f35b6101506103d7565b60405161015d9190611077565b60405180910390f35b610180600480360381019061017b9190611092565b6103e1565b60405161018d919061104d565b60405180910390f35b61019e610410565b6040516101ab9190611101565b60405180910390f35b6101ce60048036038101906101c99190610ff2565b610427565b6040516101db919061104d565b60405180910390f35b6101fe60048036038101906101f99190610ff2565b61045e565b005b61021a6004803603810190610215919061111c565b610474565b6040516102279190611077565b60405180910390f35b6102386104bc565b005b6102426104d0565b60405161024f9190611158565b60405180910390f35b6102606104fa565b60405161026d9190610f37565b60405180910390f35b610290600480360381019061028b9190610ff2565b61058c565b60405161029d919061104d565b60405180910390f35b6102c060048036038101906102bb9190610ff2565b610603565b6040516102cd919061104d565b60405180910390f35b6102f060048036038101906102eb9190611173565b610626565b6040516102fd9190611077565b60405180910390f35b610320600480360381019061031b919061111c565b6106ad565b005b606060038054610331906111e2565b80601f016020809104026020016040519081016040528092919081815260200182805461035d906111e2565b80156103aa5780601f1061037f576101008083540402835291602001916103aa565b820191906000526020600020905b81548152906001019060200180831161038d57829003601f168201915b5050505050905090565b6000806103bf610730565b90506103cc818585610738565b600191505092915050565b6000600254905090565b6000806103ec610730565b90506103f9858285610901565b61040485858561098d565b60019150509392505050565b6000600560149054906101000a900460ff16905090565b600080610432610730565b90506104538185856104448589610626565b61044e9190611242565b610738565b600191505092915050565b610466610c03565b6104708282610c81565b5050565b60008060008373ffffffffffffffffffffffffffffffffffffffff1673ffffffffffffffffffffffffffffffffffffffff168152602001908152602001600020549050919050565b6104c4610c03565b6104ce6000610dd7565b565b6000600560009054906101000a900473ffffffffffffffffffffffffffffffffffffffff16905090565b606060048054610509906111e2565b80601f0160208091040260200160405190810160405280929190818152602001828054610535906111e2565b80156105825780601f1061055757610100808354040283529160200191610582565b820191906000526020600020905b81548152906001019060200180831161056557829003601f168201915b5050505050905090565b600080610597610730565b905060006105a58286610626565b9050838110156105ea576040517f08c379a00000000000000000000000000000000000000000000000000000000081526004016105e1906112e8565b60405180910390fd5b6105f78286868403610738565b60019250505092915050565b60008061060e610730565b905061061b81858561098d565b600191505092915050565b6000600160008473ffffffffffffffffffffffffffffffffffffffff1673ffffffffffffffffffffffffffffffffffffffff16815260200190815260200160002060008373ffffffffffffffffffffffffffffffffffffffff1673ffffffffffffffffffffffffffffffffffffffff16815260200190815260200160002054905092915050565b6106b5610c03565b600073ffffffffffffffffffffffffffffffffffffffff168173ffffffffffffffffffffffffffffffffffffffff1603610724576040517f08c379a000000000000000000000000000000000000000000000000000000000815260040161071b9061137a565b60405180910390fd5b61072d81610dd7565b50565b600033905090565b600073ffffffffffffffffffffffffffffffffffffffff168373ffffffffffffffffffffffffffffffffffffffff16036107a7576040517f08c379a000000000000000000000000000000000000000000000000000000000815260040161079e9061140c565b60405180910390fd5b600073ffffffffffffffffffffffffffffffffffffffff168273ffffffffffffffffffffffffffffffffffffffff1603610816576040517f08c379a000000000000000000000000000000000000000000000000000000000815260040161080d9061149e565b60405180910390fd5b80600160008573ffffffffffffffffffffffffffffffffffffffff1673ffffffffffffffffffffffffffffffffffffffff16815260200190815260200160002060008473ffffffffffffffffffffffffffffffffffffffff1673ffffffffffffffffffffffffffffffffffffffff168152602001908152602001600020819055508173ffffffffffffffffffffffffffffffffffffffff168373ffffffffffffffffffffffffffffffffffffffff167f8c5be1e5ebec7d5bd14f71427d1e84f3dd0314c0f7b2291e5b200ac8c7c3b925836040516108f49190611077565b60405180910390a3505050565b600061090d8484610626565b90507fffffffffffffffffffffffffffffffffffffffffffffffffffffffffffffffff81146109875781811015610979576040517f08c379a00000000000000000000000000000000000000000000000000000000081526004016109709061150a565b60405180910390fd5b6109868484848403610738565b5b50505050565b600073ffffffffffffffffffffffffffffffffffffffff168373ffffffffffffffffffffffffffffffffffffffff16036109fc576040517f08c379a00000000000000000000000000000000000000000000000000000000081526004016109f39061159c565b60405180910390fd5b600073ffffffffffffffffffffffffffffffffffffffff168273ffffffffffffffffffffffffffffffffffffffff1603610a6b576040517f08c379a0000000000000000000000000000000000000000000000000000000008152600401610a629061162e565b60405180910390fd5b610a76838383610e9d565b60008060008573ffffffffffffffffffffffffffffffffffffffff1673ffffffffffffffffffffffffffffffffffffffff16815260200190815260200160002054905081811015610afc576040517f08c379a0000000000000000000000000000000000000000000000000000000008152600401610af3906116c0565b60405180910390fd5b8181036000808673ffffffffffffffffffffffffffffffffffffffff1673ffffffffffffffffffffffffffffffffffffffff16815260200190815260200160002081905550816000808573ffffffffffffffffffffffffffffffffffffffff1673ffffffffffffffffffffffffffffffffffffffff168152602001908152602001600020600082825401925050819055508273ffffffffffffffffffffffffffffffffffffffff168473ffffffffffffffffffffffffffffffffffffffff167fddf252ad1be2c89b69c2b068fc378daa952ba7f163c4a11628f55a4df523b3ef84604051610bea9190611077565b60405180910390a3610bfd848484610ea2565b50505050565b610c0b610730565b73ffffffffffffffffffffffffffffffffffffffff16610c296104d0565b73ffffffffffffffffffffffffffffffffffffffff1614610c7f576040517f08c379a0000000000000000000000000000000000000000000000000000000008152600401610c769061172c565b60405180910390fd5b565b600073ffffffffffffffffffffffffffffffffffffffff168273ffffffffffffffffffffffffffffffffffffffff1603610cf0576040517f08c379a0000000000000000000000000000000000000000000000000000000008152600401610ce790611798565b60405180910390fd5b610cfc60008383610e9d565b8060026000828254610d0e9190611242565b92505081905550806000808473ffffffffffffffffffffffffffffffffffffffff1673ffffffffffffffffffffffffffffffffffffffff168152602001908152602001600020600082825401925050819055508173ffffffffffffffffffffffffffffffffffffffff16600073ffffffffffffffffffffffffffffffffffffffff167fddf252ad1be2c89b69c2b068fc378daa952ba7f163c4a11628f55a4df523b3ef83604051610dbf9190611077565b60405180910390a3610dd360008383610ea2565b5050565b6000600560009054906101000a900473ffffffffffffffffffffffffffffffffffffffff16905081600560006101000a81548173ffffffffffffffffffffffffffffffffffffffff021916908373ffffffffffffffffffffffffffffffffffffffff1602179055508173ffffffffffffffffffffffffffffffffffffffff168173ffffffffffffffffffffffffffffffffffffffff167f8be0079c531659141344cd1fd0a4f28419497f9722a3daafe3b4186f6b6457e060405160405180910390a35050565b505050565b505050565b600081519050919050565b600082825260208201905092915050565b60005b83811015610ee1578082015181840152602081019050610ec6565b60008484015250505050565b6000601f19601f8301169050919050565b6000610f0982610ea7565b610f138185610eb2565b9350610f23818560208601610ec3565b610f2c81610eed565b840191505092915050565b60006020820190508181036000830152610f518184610efe565b905092915050565b600080fd5b600073ffffffffffffffffffffffffffffffffffffffff82169050919050565b6000610f8982610f5e565b9050919050565b610f9981610f7e565b8114610fa457600080fd5b50565b600081359050610fb681610f90565b92915050565b6000819050919050565b610fcf81610fbc565b8114610fda57600080fd5b50565b600081359050610fec81610fc6565b92915050565b6000806040838503121561100957611008610f59565b5b600061101785828601610fa7565b925050602061102885828601610fdd565b9150509250929050565b60008115159050919050565b61104781611032565b82525050565b6000602082019050611062600083018461103e565b92915050565b61107181610fbc565b82525050565b600060208201905061108c6000830184611068565b92915050565b6000806000606084860312156110ab576110aa610f59565b5b60006110b986828701610fa7565b93505060206110ca86828701610fa7565b92505060406110db86828701610fdd565b9150509250925092565b600060ff82169050919050565b6110fb816110e5565b82525050565b600060208201905061111660008301846110f2565b92915050565b60006020828403121561113257611131610f59565b5b600061114084828501610fa7565b91505092915050565b61115281610f7e565b82525050565b600060208201905061116d6000830184611149565b92915050565b6000806040838503121561118a57611189610f59565b5b600061119885828601610fa7565b92505060206111a985828601610fa7565b9150509250929050565b7f4e487b7100000000000000000000000000000000000000000000000000000000600052602260045260246000fd5b600060028204905060018216806111fa57607f821691505b60208210810361120d5761120c6111b3565b5b50919050565b7f4e487b7100000000000000000000000000000000000000000000000000000000600052601160045260246000fd5b600061124d82610fbc565b915061125883610fbc565b92508282019050808211156112705761126f611213565b5b92915050565b7f45524332303a2064656372656173656420616c6c6f77616e63652062656c6f7760008201527f207a65726f000000000000000000000000000000000000000000000000000000602082015250565b60006112d2602583610eb2565b91506112dd82611276565b604082019050919050565b60006020820190508181036000830152611301816112c5565b9050919050565b7f4f776e61626c653a206e6577206f776e657220697320746865207a65726f206160008201527f6464726573730000000000000000000000000000000000000000000000000000602082015250565b6000611364602683610eb2565b915061136f82611308565b604082019050919050565b6000602082019050818103600083015261139381611357565b9050919050565b7f45524332303a20617070726f76652066726f6d20746865207a65726f2061646460008201527f7265737300000000000000000000000000000000000000000000000000000000602082015250565b60006113f6602483610eb2565b91506114018261139a565b604082019050919050565b60006020820190508181036000830152611425816113e9565b9050919050565b7f45524332303a20617070726f766520746f20746865207a65726f20616464726560008201527f7373000000000000000000000000000000000000000000000000000000000000602082015250565b6000611488602283610eb2565b91506114938261142c565b604082019050919050565b600060208201905081810360008301526114b78161147b565b9050919050565b7f45524332303a20696e73756666696369656e7420616c6c6f77616e6365000000600082015250565b60006114f4601d83610eb2565b91506114ff826114be565b602082019050919050565b60006020820190508181036000830152611523816114e7565b9050919050565b7f45524332303a207472616e736665722066726f6d20746865207a65726f20616460008201527f6472657373000000000000000000000000000000000000000000000000000000602082015250565b6000611586602583610eb2565b91506115918261152a565b604082019050919050565b600060208201905081810360008301526115b581611579565b9050919050565b7f45524332303a207472616e7366657220746f20746865207a65726f206164647260008201527f6573730000000000000000000000000000000000000000000000000000000000602082015250565b6000611618602383610eb2565b9150611623826115bc565b604082019050919050565b600060208201905081810360008301526116478161160b565b9050919050565b7f45524332303a207472616e7366657220616d6f756e742065786365656473206260008201527f616c616e63650000000000000000000000000000000000000000000000000000602082015250565b60006116aa602683610eb2565b91506116b58261164e565b604082019050919050565b600060208201905081810360008301526116d98161169d565b9050919050565b7f4f776e61626c653a2063616c6c6572206973206e6f7420746865206f776e6572600082015250565b6000611716602083610eb2565b9150611721826116e0565b602082019050919050565b6000602082019050818103600083015261174581611709565b9050919050565b7f45524332303a206d696e7420746f20746865207a65726f206164647265737300600082015250565b6000611782601f83610eb2565b915061178d8261174c565b602082019050919050565b600060208201905081810360008301526117b181611775565b905091905056fea2646970667358221220c96460a439f9d030ad6bac9e61116977bff24089872a7dbc37739ea169bc5b8364736f6c63430008130033",
  "linkReferences": {},
  "deployedLinkReferences": {}
}